{
  "contractName": "ScaryTeacherNFT",
  "address": "0x86c2e4560413CF05ba28089b10E75f4cEB843b8b",
  "abi": [
    {
      "inputs": [
        {
          "internalType": "string",
          "name": "_name",
          "type": "string"
        },
        {
          "internalType": "string",
          "name": "_symbol",
          "type": "string"
        },
        {
          "internalType": "string",
          "name": "_initBaseURI",
          "type": "string"
        }
      ],
      "stateMutability": "nonpayable",
      "type": "constructor"
    },
    {
      "anonymous": false,
      "inputs": [
        {
          "indexed": true,
          "internalType": "address",
          "name": "owner",
          "type": "address"
        },
        {
          "indexed": true,
          "internalType": "address",
          "name": "approved",
          "type": "address"
        },
        {
          "indexed": true,
          "internalType": "uint256",
          "name": "tokenId",
          "type": "uint256"
        }
      ],
      "name": "Approval",
      "type": "event"
    },
    {
      "anonymous": false,
      "inputs": [
        {
          "indexed": true,
          "internalType": "address",
          "name": "owner",
          "type": "address"
        },
        {
          "indexed": true,
          "internalType": "address",
          "name": "operator",
          "type": "address"
        },
        {
          "indexed": false,
          "internalType": "bool",
          "name": "approved",
          "type": "bool"
        }
      ],
      "name": "ApprovalForAll",
      "type": "event"
    },
    {
      "anonymous": false,
      "inputs": [
        {
          "indexed": false,
          "internalType": "address",
          "name": "recipient",
          "type": "address"
        },
        {
          "indexed": false,
          "internalType": "uint256",
          "name": "value",
          "type": "uint256"
        }
      ],
      "name": "BalanceWithdrawn",
      "type": "event"
    },
    {
      "anonymous": false,
      "inputs": [
        {
          "indexed": false,
          "internalType": "address",
          "name": "minter",
          "type": "address"
        },
        {
          "indexed": false,
          "internalType": "uint256",
          "name": "amount",
          "type": "uint256"
        }
      ],
      "name": "Minted",
      "type": "event"
    },
    {
      "anonymous": false,
      "inputs": [
        {
          "indexed": true,
          "internalType": "address",
          "name": "previousOwner",
          "type": "address"
        },
        {
          "indexed": true,
          "internalType": "address",
          "name": "newOwner",
          "type": "address"
        }
      ],
      "name": "OwnershipTransferred",
      "type": "event"
    },
    {
      "anonymous": false,
      "inputs": [
        {
          "indexed": false,
          "internalType": "address",
          "name": "signer",
          "type": "address"
        }
      ],
      "name": "SignerChanged",
      "type": "event"
    },
    {
      "anonymous": false,
      "inputs": [
        {
          "indexed": false,
          "internalType": "enum ScaryTeachers.State",
          "name": "_state",
          "type": "uint8"
        }
      ],
      "name": "StateChanged",
      "type": "event"
    },
    {
      "anonymous": false,
      "inputs": [
        {
          "indexed": true,
          "internalType": "address",
          "name": "from",
          "type": "address"
        },
        {
          "indexed": true,
          "internalType": "address",
          "name": "to",
          "type": "address"
        },
        {
          "indexed": true,
          "internalType": "uint256",
          "name": "tokenId",
          "type": "uint256"
        }
      ],
      "name": "Transfer",
      "type": "event"
    },
    {
      "inputs": [],
      "name": "MAX_MINT",
      "outputs": [
        {
          "internalType": "uint256",
          "name": "",
          "type": "uint256"
        }
      ],
      "stateMutability": "view",
      "type": "function"
    },
    {
      "inputs": [
        {
          "internalType": "address",
          "name": "__user",
          "type": "address"
        }
      ],
      "name": "OGUser",
      "outputs": [
        {
          "internalType": "bool",
          "name": "",
          "type": "bool"
        }
      ],
      "stateMutability": "view",
      "type": "function"
    },
    {
      "inputs": [
        {
          "internalType": "address",
          "name": "__user",
          "type": "address"
        },
        {
          "internalType": "bool",
          "name": "__allowDiscount",
          "type": "bool"
        }
      ],
      "name": "OGlistUser",
      "outputs": [],
      "stateMutability": "nonpayable",
      "type": "function"
    },
    {
      "inputs": [
        {
          "internalType": "address",
          "name": "to",
          "type": "address"
        },
        {
          "internalType": "uint256",
          "name": "tokenId",
          "type": "uint256"
        }
      ],
      "name": "approve",
      "outputs": [],
      "stateMutability": "nonpayable",
      "type": "function"
    },
    {
      "inputs": [
        {
          "internalType": "address",
          "name": "owner",
          "type": "address"
        }
      ],
      "name": "balanceOf",
      "outputs": [
        {
          "internalType": "uint256",
          "name": "",
          "type": "uint256"
        }
      ],
      "stateMutability": "view",
      "type": "function"
    },
    {
      "inputs": [],
      "name": "baseTokenURI",
      "outputs": [
        {
          "internalType": "string",
          "name": "",
          "type": "string"
        }
      ],
      "stateMutability": "view",
      "type": "function"
    },
    {
      "inputs": [
        {
          "internalType": "address",
          "name": "__user",
          "type": "address"
        }
      ],
      "name": "blacklist",
      "outputs": [
        {
          "internalType": "bool",
          "name": "",
          "type": "bool"
        }
      ],
      "stateMutability": "view",
      "type": "function"
    },
    {
      "inputs": [
        {
          "internalType": "address",
          "name": "__user",
          "type": "address"
        },
        {
          "internalType": "bool",
          "name": "__status",
          "type": "bool"
        }
      ],
      "name": "blacklistUser",
      "outputs": [],
      "stateMutability": "nonpayable",
      "type": "function"
    },
    {
      "inputs": [],
      "name": "finishSale",
      "outputs": [],
      "stateMutability": "nonpayable",
      "type": "function"
    },
    {
      "inputs": [
        {
          "internalType": "uint256",
          "name": "tokenId",
          "type": "uint256"
        }
      ],
      "name": "getApproved",
      "outputs": [
        {
          "internalType": "address",
          "name": "",
          "type": "address"
        }
      ],
      "stateMutability": "view",
      "type": "function"
    },
    {
      "inputs": [],
      "name": "getMaxSupply",
      "outputs": [
        {
          "internalType": "uint256",
          "name": "",
          "type": "uint256"
        }
      ],
      "stateMutability": "view",
      "type": "function"
    },
    {
      "inputs": [],
      "name": "getOGTeacherPrice",
      "outputs": [
        {
          "internalType": "uint256",
          "name": "",
          "type": "uint256"
        }
      ],
      "stateMutability": "view",
      "type": "function"
    },
    {
      "inputs": [],
      "name": "getPublicTeacherPrice",
      "outputs": [
        {
          "internalType": "uint256",
          "name": "",
          "type": "uint256"
        }
      ],
      "stateMutability": "view",
      "type": "function"
    },
    {
      "inputs": [],
      "name": "getWhitelistPrice",
      "outputs": [
        {
          "internalType": "uint256",
          "name": "",
          "type": "uint256"
        }
      ],
      "stateMutability": "view",
      "type": "function"
    },
    {
      "inputs": [
        {
          "internalType": "address",
          "name": "owner",
          "type": "address"
        },
        {
          "internalType": "address",
          "name": "operator",
          "type": "address"
        }
      ],
      "name": "isApprovedForAll",
      "outputs": [
        {
          "internalType": "bool",
          "name": "",
          "type": "bool"
        }
      ],
      "stateMutability": "view",
      "type": "function"
    },
    {
      "inputs": [],
      "name": "maxNFTsPerWallet",
      "outputs": [
        {
          "internalType": "uint256",
          "name": "",
          "type": "uint256"
        }
      ],
      "stateMutability": "view",
      "type": "function"
    },
    {
      "inputs": [
        {
          "internalType": "uint256",
          "name": "amount",
          "type": "uint256"
        }
      ],
      "name": "mint",
      "outputs": [],
      "stateMutability": "payable",
      "type": "function"
    },
    {
      "inputs": [
        {
          "internalType": "uint256",
          "name": "amount",
          "type": "uint256"
        },
        {
          "internalType": "address payable",
          "name": "referrer",
          "type": "address"
        }
      ],
      "name": "mintWithReferral",
      "outputs": [],
      "stateMutability": "payable",
      "type": "function"
    },
    {
      "inputs": [],
      "name": "name",
      "outputs": [
        {
          "internalType": "string",
          "name": "",
          "type": "string"
        }
      ],
      "stateMutability": "view",
      "type": "function"
    },
    {
      "inputs": [],
      "name": "owner",
      "outputs": [
        {
          "internalType": "address",
          "name": "",
          "type": "address"
        }
      ],
      "stateMutability": "view",
      "type": "function"
    },
    {
      "inputs": [
        {
          "internalType": "uint256",
          "name": "tokenId",
          "type": "uint256"
        }
      ],
      "name": "ownerOf",
      "outputs": [
        {
          "internalType": "address",
          "name": "",
          "type": "address"
        }
      ],
      "stateMutability": "view",
      "type": "function"
    },
    {
      "inputs": [],
      "name": "pauseSale",
      "outputs": [],
      "stateMutability": "nonpayable",
      "type": "function"
    },
    {
      "inputs": [],
      "name": "referralBonus",
      "outputs": [
        {
          "internalType": "uint256",
          "name": "",
          "type": "uint256"
        }
      ],
      "stateMutability": "view",
      "type": "function"
    },
    {
      "inputs": [],
      "name": "renounceOwnership",
      "outputs": [],
      "stateMutability": "nonpayable",
      "type": "function"
    },
    {
      "inputs": [
        {
          "internalType": "address",
          "name": "from",
          "type": "address"
        },
        {
          "internalType": "address",
          "name": "to",
          "type": "address"
        },
        {
          "internalType": "uint256",
          "name": "tokenId",
          "type": "uint256"
        }
      ],
      "name": "safeTransferFrom",
      "outputs": [],
      "stateMutability": "nonpayable",
      "type": "function"
    },
    {
      "inputs": [
        {
          "internalType": "address",
          "name": "from",
          "type": "address"
        },
        {
          "internalType": "address",
          "name": "to",
          "type": "address"
        },
        {
          "internalType": "uint256",
          "name": "tokenId",
          "type": "uint256"
        },
        {
          "internalType": "bytes",
          "name": "_data",
          "type": "bytes"
        }
      ],
      "name": "safeTransferFrom",
      "outputs": [],
      "stateMutability": "nonpayable",
      "type": "function"
    },
    {
      "inputs": [
        {
          "internalType": "address",
          "name": "operator",
          "type": "address"
        },
        {
          "internalType": "bool",
          "name": "approved",
          "type": "bool"
        }
      ],
      "name": "setApprovalForAll",
      "outputs": [],
      "stateMutability": "nonpayable",
      "type": "function"
    },
    {
      "inputs": [
        {
          "internalType": "uint256",
          "name": "__amount",
          "type": "uint256"
        }
      ],
      "name": "setMaxNFTsPerWallet",
      "outputs": [],
      "stateMutability": "nonpayable",
      "type": "function"
    },
    {
      "inputs": [
        {
          "internalType": "uint256",
          "name": "__amount",
          "type": "uint256"
        }
      ],
      "name": "setMaxSupply",
      "outputs": [],
      "stateMutability": "nonpayable",
      "type": "function"
    },
    {
      "inputs": [
        {
          "internalType": "uint256",
          "name": "__amount",
          "type": "uint256"
        }
      ],
      "name": "setReferralBonus",
      "outputs": [],
      "stateMutability": "nonpayable",
      "type": "function"
    },
    {
      "inputs": [
        {
          "internalType": "string",
          "name": "tokenUriBase_",
          "type": "string"
        }
      ],
      "name": "setTokenURI",
      "outputs": [],
      "stateMutability": "nonpayable",
      "type": "function"
    },
    {
      "inputs": [],
      "name": "startPreSale",
      "outputs": [],
      "stateMutability": "nonpayable",
      "type": "function"
    },
    {
      "inputs": [],
      "name": "startPublicSale",
      "outputs": [],
      "stateMutability": "nonpayable",
      "type": "function"
    },
    {
      "inputs": [],
      "name": "state",
      "outputs": [
        {
          "internalType": "enum ScaryTeachers.State",
          "name": "",
          "type": "uint8"
        }
      ],
      "stateMutability": "view",
      "type": "function"
    },
    {
      "inputs": [
        {
          "internalType": "bytes4",
          "name": "interfaceId",
          "type": "bytes4"
        }
      ],
      "name": "supportsInterface",
      "outputs": [
        {
          "internalType": "bool",
          "name": "",
          "type": "bool"
        }
      ],
      "stateMutability": "view",
      "type": "function"
    },
    {
      "inputs": [],
      "name": "symbol",
      "outputs": [
        {
          "internalType": "string",
          "name": "",
          "type": "string"
        }
      ],
      "stateMutability": "view",
      "type": "function"
    },
    {
      "inputs": [],
      "name": "teacherPrice",
      "outputs": [
        {
          "internalType": "uint256",
          "name": "",
          "type": "uint256"
        }
      ],
      "stateMutability": "view",
      "type": "function"
    },
    {
      "inputs": [
        {
          "internalType": "address",
          "name": "__user",
          "type": "address"
        }
      ],
      "name": "teacherPriceByUser",
      "outputs": [
        {
          "internalType": "uint256",
          "name": "",
          "type": "uint256"
        }
      ],
      "stateMutability": "view",
      "type": "function"
    },
    {
      "inputs": [
        {
          "internalType": "uint256",
          "name": "index",
          "type": "uint256"
        }
      ],
      "name": "tokenByIndex",
      "outputs": [
        {
          "internalType": "uint256",
          "name": "",
          "type": "uint256"
        }
      ],
      "stateMutability": "view",
      "type": "function"
    },
    {
      "inputs": [
        {
          "internalType": "address",
          "name": "owner",
          "type": "address"
        },
        {
          "internalType": "uint256",
          "name": "index",
          "type": "uint256"
        }
      ],
      "name": "tokenOfOwnerByIndex",
      "outputs": [
        {
          "internalType": "uint256",
          "name": "",
          "type": "uint256"
        }
      ],
      "stateMutability": "view",
      "type": "function"
    },
    {
      "inputs": [
        {
          "internalType": "uint256",
          "name": "tokenId",
          "type": "uint256"
        }
      ],
      "name": "tokenURI",
      "outputs": [
        {
          "internalType": "string",
          "name": "",
          "type": "string"
        }
      ],
      "stateMutability": "view",
      "type": "function"
    },
    {
      "inputs": [],
      "name": "totalSupply",
      "outputs": [
        {
          "internalType": "uint256",
          "name": "",
          "type": "uint256"
        }
      ],
      "stateMutability": "view",
      "type": "function"
    },
    {
      "inputs": [
        {
          "internalType": "address",
          "name": "from",
          "type": "address"
        },
        {
          "internalType": "address",
          "name": "to",
          "type": "address"
        },
        {
          "internalType": "uint256",
          "name": "tokenId",
          "type": "uint256"
        }
      ],
      "name": "transferFrom",
      "outputs": [],
      "stateMutability": "nonpayable",
      "type": "function"
    },
    {
      "inputs": [
        {
          "internalType": "address",
          "name": "newOwner",
          "type": "address"
        }
      ],
      "name": "transferOwnership",
      "outputs": [],
      "stateMutability": "nonpayable",
      "type": "function"
    },
    {
      "inputs": [
        {
          "internalType": "uint256",
          "name": "__price",
          "type": "uint256"
        }
      ],
      "name": "updateOGTeacherPrice",
      "outputs": [],
      "stateMutability": "nonpayable",
      "type": "function"
    },
    {
      "inputs": [
        {
          "internalType": "uint256",
          "name": "__price",
          "type": "uint256"
        }
      ],
      "name": "updatePublicSalePrice",
      "outputs": [],
      "stateMutability": "nonpayable",
      "type": "function"
    },
    {
      "inputs": [
        {
          "internalType": "address",
          "name": "__signer",
          "type": "address"
        }
      ],
      "name": "updateSigner",
      "outputs": [],
      "stateMutability": "nonpayable",
      "type": "function"
    },
    {
      "inputs": [
        {
          "internalType": "uint256",
          "name": "__price",
          "type": "uint256"
        }
      ],
      "name": "updateWhitelistTeacherPrice",
      "outputs": [],
      "stateMutability": "nonpayable",
      "type": "function"
    },
    {
      "inputs": [
        {
          "internalType": "address",
          "name": "__user",
          "type": "address"
        }
      ],
      "name": "whitelist",
      "outputs": [
        {
          "internalType": "bool",
          "name": "",
          "type": "bool"
        }
      ],
      "stateMutability": "view",
      "type": "function"
    },
    {
      "inputs": [
        {
          "internalType": "address",
          "name": "__user",
          "type": "address"
        },
        {
          "internalType": "bool",
          "name": "__allowDiscount",
          "type": "bool"
        }
      ],
      "name": "whitelistUser",
      "outputs": [],
      "stateMutability": "nonpayable",
      "type": "function"
    },
    {
      "inputs": [
        {
          "internalType": "address",
          "name": "recipient",
          "type": "address"
        }
      ],
      "name": "withdrawAll",
      "outputs": [],
      "stateMutability": "nonpayable",
      "type": "function"
    },
    {
      "inputs": [
        {
          "internalType": "address payable",
          "name": "_to",
          "type": "address"
        }
      ],
      "name": "withdrawAllViaCall",
      "outputs": [],
      "stateMutability": "nonpayable",
      "type": "function"
    }
  ],
  "bytecode": "0x60806040526040518060400160405280600c81526020017f5363617279546561636865720000000000000000000000000000000000000000815250600b90805190602001906200005192919062000347565b506040518060400160405280600581526020017f2e6a736f6e000000000000000000000000000000000000000000000000000000815250600d90805190602001906200009f92919062000347565b50662386f26fc10000600e5566b1a2bc2ec50000600f5561271060105560146011556014601255600a6013556000601460006101000a81548160ff0219169083151502179055506001601460016101000a81548160ff0219169083151502179055503480156200010e57600080fd5b5060405162005e2e38038062005e2e833981810160405281019062000134919062000475565b828281600090805190602001906200014e92919062000347565b5080600190805190602001906200016792919062000347565b5050506200018a6200017e620001a460201b60201c565b620001ac60201b60201c565b6200019b816200027260201b60201c565b50505062000735565b600033905090565b6000600a60009054906101000a900473ffffffffffffffffffffffffffffffffffffffff16905081600a60006101000a81548173ffffffffffffffffffffffffffffffffffffffff021916908373ffffffffffffffffffffffffffffffffffffffff1602179055508173ffffffffffffffffffffffffffffffffffffffff168173ffffffffffffffffffffffffffffffffffffffff167f8be0079c531659141344cd1fd0a4f28419497f9722a3daafe3b4186f6b6457e060405160405180910390a35050565b62000282620001a460201b60201c565b73ffffffffffffffffffffffffffffffffffffffff16620002a86200031d60201b60201c565b73ffffffffffffffffffffffffffffffffffffffff161462000301576040517f08c379a0000000000000000000000000000000000000000000000000000000008152600401620002f89062000555565b60405180910390fd5b80600c90805190602001906200031992919062000347565b5050565b6000600a60009054906101000a900473ffffffffffffffffffffffffffffffffffffffff16905090565b82805462000355906200061d565b90600052602060002090601f016020900481019282620003795760008555620003c5565b82601f106200039457805160ff1916838001178555620003c5565b82800160010185558215620003c5579182015b82811115620003c4578251825591602001919060010190620003a7565b5b509050620003d49190620003d8565b5090565b5b80821115620003f3576000816000905550600101620003d9565b5090565b60006200040e6200040884620005a0565b62000577565b9050828152602081018484840111156200042d576200042c620006ec565b5b6200043a848285620005e7565b509392505050565b600082601f8301126200045a5762000459620006e7565b5b81516200046c848260208601620003f7565b91505092915050565b600080600060608486031215620004915762000490620006f6565b5b600084015167ffffffffffffffff811115620004b257620004b1620006f1565b5b620004c08682870162000442565b935050602084015167ffffffffffffffff811115620004e457620004e3620006f1565b5b620004f28682870162000442565b925050604084015167ffffffffffffffff811115620005165762000515620006f1565b5b620005248682870162000442565b9150509250925092565b60006200053d602083620005d6565b91506200054a826200070c565b602082019050919050565b6000602082019050818103600083015262000570816200052e565b9050919050565b60006200058362000596565b905062000591828262000653565b919050565b6000604051905090565b600067ffffffffffffffff821115620005be57620005bd620006b8565b5b620005c982620006fb565b9050602081019050919050565b600082825260208201905092915050565b60005b8381101562000607578082015181840152602081019050620005ea565b8381111562000617576000848401525b50505050565b600060028204905060018216806200063657607f821691505b602082108114156200064d576200064c62000689565b5b50919050565b6200065e82620006fb565b810181811067ffffffffffffffff8211171562000680576200067f620006b8565b5b80604052505050565b7f4e487b7100000000000000000000000000000000000000000000000000000000600052602260045260246000fd5b7f4e487b7100000000000000000000000000000000000000000000000000000000600052604160045260246000fd5b600080fd5b600080fd5b600080fd5b600080fd5b6000601f19601f8301169050919050565b7f4f776e61626c653a2063616c6c6572206973206e6f7420746865206f776e6572600082015250565b6156e980620007456000396000f3fe6080604052600436106102c95760003560e01c806370a0823111610175578063b40bce1e116100dc578063da3ef23f11610095578063e8aca46a1161006f578063e8aca46a14610afd578063e985e9c514610b26578063f2fde38b14610b63578063fcbca45614610b8c576102c9565b8063da3ef23f14610a6c578063dbd4f33d14610a95578063e5326ab114610ad2576102c9565b8063b40bce1e14610948578063b88d4fde14610985578063c6682862146109ae578063c87b56dd146109d9578063cc9ff9c614610a16578063d5abeb0114610a41576102c9565b80638c7700671161012e5780638c7700671461084c5780638da5cb5b1461087757806395d89b41146108a2578063a22cb465146108cd578063a4b2c57d146108f6578063a55c9a9f1461091f576102c9565b806370a082311461073e578063715018a61461077b578063773a17141461079257806377f8ddc2146107bb57806380eae578146107f85780638160bf7814610821576102c9565b80633ccfd60b116102345780634f6ccce7116101ed5780636352211e116101c75780636352211e1461066d57806364a60b47146106aa57806367da3bc4146106e85780636c0360eb14610713576102c9565b80634f6ccce7146105dc57806355f804b3146106195780635c975abb14610642576102c9565b80633ccfd60b146104fc57806340c10f191461050657806342842e0e14610522578063438b63001461054b5780634a4c560d146105885780634ced4734146105b1576102c9565b80630d95ccc9116102865780630d95ccc9146103ee57806318160ddd14610417578063231b071614610442578063239c70ae1461046b57806323b872dd146104965780632f745c59146104bf576102c9565b806301ffc9a7146102ce57806302329a291461030b57806306fdde0314610334578063081812fc1461035f578063088a4ed01461039c578063095ea7b3146103c5575b600080fd5b3480156102da57600080fd5b506102f560048036038101906102f09190613ef1565b610bb5565b604051610302919061466a565b60405180910390f35b34801561031757600080fd5b50610332600480360381019061032d9190613ec4565b610c2f565b005b34801561034057600080fd5b50610349610cc8565b60405161035691906146ae565b60405180910390f35b34801561036b57600080fd5b5061038660048036038101906103819190613f94565b610d5a565b60405161039391906145e1565b60405180910390f35b3480156103a857600080fd5b506103c360048036038101906103be9190613f94565b610ddf565b005b3480156103d157600080fd5b506103ec60048036038101906103e79190613e84565b610e65565b005b3480156103fa57600080fd5b5061041560048036038101906104109190613ec4565b610f7d565b005b34801561042357600080fd5b5061042c611016565b6040516104399190614a50565b60405180910390f35b34801561044e57600080fd5b5061046960048036038101906104649190613f94565b611023565b005b34801561047757600080fd5b506104806110a9565b60405161048d9190614a50565b60405180910390f35b3480156104a257600080fd5b506104bd60048036038101906104b89190613d6e565b6110af565b005b3480156104cb57600080fd5b506104e660048036038101906104e19190613e84565b61110f565b6040516104f39190614a50565b60405180910390f35b6105046111b4565b005b610520600480360381019061051b9190613e84565b611353565b005b34801561052e57600080fd5b5061054960048036038101906105449190613d6e565b6117cb565b005b34801561055757600080fd5b50610572600480360381019061056d9190613cd4565b6117eb565b60405161057f9190614648565b60405180910390f35b34801561059457600080fd5b506105af60048036038101906105aa9190613cd4565b611899565b005b3480156105bd57600080fd5b506105c6611970565b6040516105d3919061466a565b60405180910390f35b3480156105e857600080fd5b5061060360048036038101906105fe9190613f94565b611983565b6040516106109190614a50565b60405180910390f35b34801561062557600080fd5b50610640600480360381019061063b9190613f4b565b6119f4565b005b34801561064e57600080fd5b50610657611a8a565b604051610664919061466a565b60405180910390f35b34801561067957600080fd5b50610694600480360381019061068f9190613f94565b611a9d565b6040516106a191906145e1565b60405180910390f35b3480156106b657600080fd5b506106d160048036038101906106cc9190613cd4565b611b4f565b6040516106df929190614685565b60405180910390f35b3480156106f457600080fd5b506106fd611ba0565b60405161070a9190614a50565b60405180910390f35b34801561071f57600080fd5b50610728611ba6565b60405161073591906146ae565b60405180910390f35b34801561074a57600080fd5b5061076560048036038101906107609190613cd4565b611c34565b6040516107729190614a50565b60405180910390f35b34801561078757600080fd5b50610790611cec565b005b34801561079e57600080fd5b506107b960048036038101906107b49190613f94565b611d74565b005b3480156107c757600080fd5b506107e260048036038101906107dd9190613cd4565b611dfa565b6040516107ef919061466a565b60405180910390f35b34801561080457600080fd5b5061081f600480360381019061081a9190613f94565b611e1a565b005b34801561082d57600080fd5b50610836611ea0565b6040516108439190614a50565b60405180910390f35b34801561085857600080fd5b50610861611ea6565b60405161086e9190614a50565b60405180910390f35b34801561088357600080fd5b5061088c611eac565b60405161089991906145e1565b60405180910390f35b3480156108ae57600080fd5b506108b7611ed6565b6040516108c491906146ae565b60405180910390f35b3480156108d957600080fd5b506108f460048036038101906108ef9190613e44565b611f68565b005b34801561090257600080fd5b5061091d60048036038101906109189190613e44565b611f7e565b005b34801561092b57600080fd5b5061094660048036038101906109419190613f94565b612055565b005b34801561095457600080fd5b5061096f600480360381019061096a9190613cd4565b6120db565b60405161097c919061466a565b60405180910390f35b34801561099157600080fd5b506109ac60048036038101906109a79190613dc1565b612131565b005b3480156109ba57600080fd5b506109c3612193565b6040516109d091906146ae565b60405180910390f35b3480156109e557600080fd5b50610a0060048036038101906109fb9190613f94565b612221565b604051610a0d91906146ae565b60405180910390f35b348015610a2257600080fd5b50610a2b6122cb565b604051610a389190614a50565b60405180910390f35b348015610a4d57600080fd5b50610a566122d1565b604051610a639190614a50565b60405180910390f35b348015610a7857600080fd5b50610a936004803603810190610a8e9190613f4b565b6122d7565b005b348015610aa157600080fd5b50610abc6004803603810190610ab79190613cd4565b61236d565b604051610ac9919061466a565b60405180910390f35b348015610ade57600080fd5b50610ae761238d565b604051610af491906146ae565b60405180910390f35b348015610b0957600080fd5b50610b246004803603810190610b1f9190613d01565b61241b565b005b348015610b3257600080fd5b50610b4d6004803603810190610b489190613d2e565b6125ff565b604051610b5a919061466a565b60405180910390f35b348015610b6f57600080fd5b50610b8a6004803603810190610b859190613cd4565b612693565b005b348015610b9857600080fd5b50610bb36004803603810190610bae9190613cd4565b61278b565b005b60007f780e9d63000000000000000000000000000000000000000000000000000000007bffffffffffffffffffffffffffffffffffffffffffffffffffffffff1916827bffffffffffffffffffffffffffffffffffffffffffffffffffffffff19161480610c285750610c2782612862565b5b9050919050565b610c37612944565b73ffffffffffffffffffffffffffffffffffffffff16610c55611eac565b73ffffffffffffffffffffffffffffffffffffffff1614610cab576040517f08c379a0000000000000000000000000000000000000000000000000000000008152600401610ca2906148f0565b60405180910390fd5b80601460006101000a81548160ff02191690831515021790555050565b606060008054610cd790614d6b565b80601f0160208091040260200160405190810160405280929190818152602001828054610d0390614d6b565b8015610d505780601f10610d2557610100808354040283529160200191610d50565b820191906000526020600020905b815481529060010190602001808311610d3357829003601f168201915b5050505050905090565b6000610d658261294c565b610da4576040517f08c379a0000000000000000000000000000000000000000000000000000000008152600401610d9b906148d0565b60405180910390fd5b6004600083815260200190815260200160002060009054906101000a900473ffffffffffffffffffffffffffffffffffffffff169050919050565b610de7612944565b73ffffffffffffffffffffffffffffffffffffffff16610e05611eac565b73ffffffffffffffffffffffffffffffffffffffff1614610e5b576040517f08c379a0000000000000000000000000000000000000000000000000000000008152600401610e52906148f0565b60405180910390fd5b8060118190555050565b6000610e7082611a9d565b90508073ffffffffffffffffffffffffffffffffffffffff168373ffffffffffffffffffffffffffffffffffffffff161415610ee1576040517f08c379a0000000000000000000000000000000000000000000000000000000008152600401610ed890614930565b60405180910390fd5b8073ffffffffffffffffffffffffffffffffffffffff16610f00612944565b73ffffffffffffffffffffffffffffffffffffffff161480610f2f5750610f2e81610f29612944565b6125ff565b5b610f6e576040517f08c379a0000000000000000000000000000000000000000000000000000000008152600401610f6590614850565b60405180910390fd5b610f7883836129b8565b505050565b610f85612944565b73ffffffffffffffffffffffffffffffffffffffff16610fa3611eac565b73ffffffffffffffffffffffffffffffffffffffff1614610ff9576040517f08c379a0000000000000000000000000000000000000000000000000000000008152600401610ff0906148f0565b60405180910390fd5b80601460016101000a81548160ff02191690831515021790555050565b6000600880549050905090565b61102b612944565b73ffffffffffffffffffffffffffffffffffffffff16611049611eac565b73ffffffffffffffffffffffffffffffffffffffff161461109f576040517f08c379a0000000000000000000000000000000000000000000000000000000008152600401611096906148f0565b60405180910390fd5b80600e8190555050565b60115481565b6110c06110ba612944565b82612a71565b6110ff576040517f08c379a00000000000000000000000000000000000000000000000000000000081526004016110f6906149b0565b60405180910390fd5b61110a838383612b4f565b505050565b600061111a83611c34565b821061115b576040517f08c379a0000000000000000000000000000000000000000000000000000000008152600401611152906146f0565b60405180910390fd5b600660008473ffffffffffffffffffffffffffffffffffffffff1673ffffffffffffffffffffffffffffffffffffffff168152602001908152602001600020600083815260200190815260200160002054905092915050565b6111bc612944565b73ffffffffffffffffffffffffffffffffffffffff166111da611eac565b73ffffffffffffffffffffffffffffffffffffffff1614611230576040517f08c379a0000000000000000000000000000000000000000000000000000000008152600401611227906148f0565b60405180910390fd5b60007383cfa478853c741fe8fc27a34223be105d83446473ffffffffffffffffffffffffffffffffffffffff16606460054761126c9190614c15565b6112769190614be4565b604051611282906145cc565b60006040518083038185875af1925050503d80600081146112bf576040519150601f19603f3d011682016040523d82523d6000602084013e6112c4565b606091505b50509050806112d257600080fd5b60006112dc611eac565b73ffffffffffffffffffffffffffffffffffffffff16476040516112ff906145cc565b60006040518083038185875af1925050503d806000811461133c576040519150601f19603f3d011682016040523d82523d6000602084013e611341565b606091505b505090508061134f57600080fd5b5050565b600061135d611016565b9050601460009054906101000a900460ff16156113af576040517f08c379a00000000000000000000000000000000000000000000000000000000081526004016113a6906146d0565b60405180910390fd5b600082116113f2576040517f08c379a00000000000000000000000000000000000000000000000000000000081526004016113e990614a10565b60405180910390fd5b601154821115611437576040517f08c379a000000000000000000000000000000000000000000000000000000000815260040161142e906147d0565b60405180910390fd5b60105482826114469190614b8e565b1115611487576040517f08c379a000000000000000000000000000000000000000000000000000000000815260040161147e90614a30565b60405180910390fd5b600061149284611c34565b905060125481106114d8576040517f08c379a00000000000000000000000000000000000000000000000000000000081526004016114cf906149d0565b60405180910390fd5b60011515601460019054906101000a900460ff161515141561153d576114fd846120db565b61153c576040517f08c379a0000000000000000000000000000000000000000000000000000000008152600401611533906147b0565b60405180910390fd5b5b60001515601660008673ffffffffffffffffffffffffffffffffffffffff1673ffffffffffffffffffffffffffffffffffffffff16815260200190815260200160002060009054906101000a900460ff161515141561178e5760011515601460019054906101000a900460ff16151514156116075782600e546115c09190614c15565b341015611602576040517f08c379a00000000000000000000000000000000000000000000000000000000081526004016115f990614970565b60405180910390fd5b611658565b82600f546116159190614c15565b341015611657576040517f08c379a000000000000000000000000000000000000000000000000000000000815260040161164e90614750565b60405180910390fd5b5b601760008573ffffffffffffffffffffffffffffffffffffffff1673ffffffffffffffffffffffffffffffffffffffff16815260200190815260200160002060000160009054906101000a900460ff161561178d576000601760003373ffffffffffffffffffffffffffffffffffffffff1673ffffffffffffffffffffffffffffffffffffffff16815260200190815260200160002060000160019054906101000a900473ffffffffffffffffffffffffffffffffffffffff16905060006064601354346117269190614c15565b6117309190614be4565b9050600081346117409190614c6f565b90508273ffffffffffffffffffffffffffffffffffffffff166108fc839081150290604051600060405180830381858888f19350505050158015611788573d6000803e3d6000fd5b505050505b5b6000600190505b8381116117c4576117b18582856117ac9190614b8e565b612db6565b80806117bc90614dce565b915050611795565b5050505050565b6117e683838360405180602001604052806000815250612131565b505050565b606060006117f883611c34565b905060008167ffffffffffffffff81111561181657611815614f33565b5b6040519080825280602002602001820160405280156118445781602001602082028036833780820191505090505b50905060005b8281101561188e5761185c858261110f565b82828151811061186f5761186e614f04565b5b602002602001018181525050808061188690614dce565b91505061184a565b508092505050919050565b6118a1612944565b73ffffffffffffffffffffffffffffffffffffffff166118bf611eac565b73ffffffffffffffffffffffffffffffffffffffff1614611915576040517f08c379a000000000000000000000000000000000000000000000000000000000815260040161190c906148f0565b60405180910390fd5b6001601560008373ffffffffffffffffffffffffffffffffffffffff1673ffffffffffffffffffffffffffffffffffffffff16815260200190815260200160002060006101000a81548160ff02191690831515021790555050565b601460019054906101000a900460ff1681565b600061198d611016565b82106119ce576040517f08c379a00000000000000000000000000000000000000000000000000000000081526004016119c5906149f0565b60405180910390fd5b600882815481106119e2576119e1614f04565b5b90600052602060002001549050919050565b6119fc612944565b73ffffffffffffffffffffffffffffffffffffffff16611a1a611eac565b73ffffffffffffffffffffffffffffffffffffffff1614611a70576040517f08c379a0000000000000000000000000000000000000000000000000000000008152600401611a67906148f0565b60405180910390fd5b80600c9080519060200190611a86929190613ad3565b5050565b601460009054906101000a900460ff1681565b6000806002600084815260200190815260200160002060009054906101000a900473ffffffffffffffffffffffffffffffffffffffff169050600073ffffffffffffffffffffffffffffffffffffffff168173ffffffffffffffffffffffffffffffffffffffff161415611b46576040517f08c379a0000000000000000000000000000000000000000000000000000000008152600401611b3d90614890565b60405180910390fd5b80915050919050565b60176020528060005260406000206000915090508060000160009054906101000a900460ff16908060000160019054906101000a900473ffffffffffffffffffffffffffffffffffffffff16905082565b60135481565b600c8054611bb390614d6b565b80601f0160208091040260200160405190810160405280929190818152602001828054611bdf90614d6b565b8015611c2c5780601f10611c0157610100808354040283529160200191611c2c565b820191906000526020600020905b815481529060010190602001808311611c0f57829003601f168201915b505050505081565b60008073ffffffffffffffffffffffffffffffffffffffff168273ffffffffffffffffffffffffffffffffffffffff161415611ca5576040517f08c379a0000000000000000000000000000000000000000000000000000000008152600401611c9c90614870565b60405180910390fd5b600360008373ffffffffffffffffffffffffffffffffffffffff1673ffffffffffffffffffffffffffffffffffffffff168152602001908152602001600020549050919050565b611cf4612944565b73ffffffffffffffffffffffffffffffffffffffff16611d12611eac565b73ffffffffffffffffffffffffffffffffffffffff1614611d68576040517f08c379a0000000000000000000000000000000000000000000000000000000008152600401611d5f906148f0565b60405180910390fd5b611d726000612dd4565b565b611d7c612944565b73ffffffffffffffffffffffffffffffffffffffff16611d9a611eac565b73ffffffffffffffffffffffffffffffffffffffff1614611df0576040517f08c379a0000000000000000000000000000000000000000000000000000000008152600401611de7906148f0565b60405180910390fd5b8060128190555050565b60166020528060005260406000206000915054906101000a900460ff1681565b611e22612944565b73ffffffffffffffffffffffffffffffffffffffff16611e40611eac565b73ffffffffffffffffffffffffffffffffffffffff1614611e96576040517f08c379a0000000000000000000000000000000000000000000000000000000008152600401611e8d906148f0565b60405180910390fd5b80600f8190555050565b60125481565b600f5481565b6000600a60009054906101000a900473ffffffffffffffffffffffffffffffffffffffff16905090565b606060018054611ee590614d6b565b80601f0160208091040260200160405190810160405280929190818152602001828054611f1190614d6b565b8015611f5e5780601f10611f3357610100808354040283529160200191611f5e565b820191906000526020600020905b815481529060010190602001808311611f4157829003601f168201915b5050505050905090565b611f7a611f73612944565b8383612e9a565b5050565b611f86612944565b73ffffffffffffffffffffffffffffffffffffffff16611fa4611eac565b73ffffffffffffffffffffffffffffffffffffffff1614611ffa576040517f08c379a0000000000000000000000000000000000000000000000000000000008152600401611ff1906148f0565b60405180910390fd5b80601660008473ffffffffffffffffffffffffffffffffffffffff1673ffffffffffffffffffffffffffffffffffffffff16815260200190815260200160002060006101000a81548160ff0219169083151502179055505050565b61205d612944565b73ffffffffffffffffffffffffffffffffffffffff1661207b611eac565b73ffffffffffffffffffffffffffffffffffffffff16146120d1576040517f08c379a00000000000000000000000000000000000000000000000000000000081526004016120c8906148f0565b60405180910390fd5b8060138190555050565b6000601560008373ffffffffffffffffffffffffffffffffffffffff1673ffffffffffffffffffffffffffffffffffffffff16815260200190815260200160002060009054906101000a900460ff169050919050565b61214261213c612944565b83612a71565b612181576040517f08c379a0000000000000000000000000000000000000000000000000000000008152600401612178906149b0565b60405180910390fd5b61218d84848484613007565b50505050565b600d80546121a090614d6b565b80601f01602080910402602001604051908101604052809291908181526020018280546121cc90614d6b565b80156122195780601f106121ee57610100808354040283529160200191612219565b820191906000526020600020905b8154815290600101906020018083116121fc57829003601f168201915b505050505081565b606061222c8261294c565b61226b576040517f08c379a000000000000000000000000000000000000000000000000000000000815260040161226290614910565b60405180910390fd5b6000612275613063565b9050600081511161229557604051806020016040528060008152506122c3565b8061229f846130f5565b600d6040516020016122b39392919061459b565b6040516020818303038152906040525b915050919050565b600e5481565b60105481565b6122df612944565b73ffffffffffffffffffffffffffffffffffffffff166122fd611eac565b73ffffffffffffffffffffffffffffffffffffffff1614612353576040517f08c379a000000000000000000000000000000000000000000000000000000000815260040161234a906148f0565b60405180910390fd5b80600d9080519060200190612369929190613ad3565b5050565b60156020528060005260406000206000915054906101000a900460ff1681565b600b805461239a90614d6b565b80601f01602080910402602001604051908101604052809291908181526020018280546123c690614d6b565b80156124135780601f106123e857610100808354040283529160200191612413565b820191906000526020600020905b8154815290600101906020018083116123f657829003601f168201915b505050505081565b60001515601760003373ffffffffffffffffffffffffffffffffffffffff1673ffffffffffffffffffffffffffffffffffffffff16815260200190815260200160002060000160009054906101000a900460ff161515146124b1576040517f08c379a00000000000000000000000000000000000000000000000000000000081526004016124a890614990565b60405180910390fd5b3373ffffffffffffffffffffffffffffffffffffffff168173ffffffffffffffffffffffffffffffffffffffff161415612520576040517f08c379a000000000000000000000000000000000000000000000000000000000815260040161251790614950565b60405180910390fd5b80601760003373ffffffffffffffffffffffffffffffffffffffff1673ffffffffffffffffffffffffffffffffffffffff16815260200190815260200160002060000160016101000a81548173ffffffffffffffffffffffffffffffffffffffff021916908373ffffffffffffffffffffffffffffffffffffffff1602179055506001601760003373ffffffffffffffffffffffffffffffffffffffff1673ffffffffffffffffffffffffffffffffffffffff16815260200190815260200160002060000160006101000a81548160ff02191690831515021790555050565b6000600560008473ffffffffffffffffffffffffffffffffffffffff1673ffffffffffffffffffffffffffffffffffffffff16815260200190815260200160002060008373ffffffffffffffffffffffffffffffffffffffff1673ffffffffffffffffffffffffffffffffffffffff16815260200190815260200160002060009054906101000a900460ff16905092915050565b61269b612944565b73ffffffffffffffffffffffffffffffffffffffff166126b9611eac565b73ffffffffffffffffffffffffffffffffffffffff161461270f576040517f08c379a0000000000000000000000000000000000000000000000000000000008152600401612706906148f0565b60405180910390fd5b600073ffffffffffffffffffffffffffffffffffffffff168173ffffffffffffffffffffffffffffffffffffffff16141561277f576040517f08c379a000000000000000000000000000000000000000000000000000000000815260040161277690614730565b60405180910390fd5b61278881612dd4565b50565b612793612944565b73ffffffffffffffffffffffffffffffffffffffff166127b1611eac565b73ffffffffffffffffffffffffffffffffffffffff1614612807576040517f08c379a00000000000000000000000000000000000000000000000000000000081526004016127fe906148f0565b60405180910390fd5b6000601560008373ffffffffffffffffffffffffffffffffffffffff1673ffffffffffffffffffffffffffffffffffffffff16815260200190815260200160002060006101000a81548160ff02191690831515021790555050565b60007f80ac58cd000000000000000000000000000000000000000000000000000000007bffffffffffffffffffffffffffffffffffffffffffffffffffffffff1916827bffffffffffffffffffffffffffffffffffffffffffffffffffffffff1916148061292d57507f5b5e139f000000000000000000000000000000000000000000000000000000007bffffffffffffffffffffffffffffffffffffffffffffffffffffffff1916827bffffffffffffffffffffffffffffffffffffffffffffffffffffffff1916145b8061293d575061293c82613256565b5b9050919050565b600033905090565b60008073ffffffffffffffffffffffffffffffffffffffff166002600084815260200190815260200160002060009054906101000a900473ffffffffffffffffffffffffffffffffffffffff1673ffffffffffffffffffffffffffffffffffffffff1614159050919050565b816004600083815260200190815260200160002060006101000a81548173ffffffffffffffffffffffffffffffffffffffff021916908373ffffffffffffffffffffffffffffffffffffffff160217905550808273ffffffffffffffffffffffffffffffffffffffff16612a2b83611a9d565b73ffffffffffffffffffffffffffffffffffffffff167f8c5be1e5ebec7d5bd14f71427d1e84f3dd0314c0f7b2291e5b200ac8c7c3b92560405160405180910390a45050565b6000612a7c8261294c565b612abb576040517f08c379a0000000000000000000000000000000000000000000000000000000008152600401612ab290614830565b60405180910390fd5b6000612ac683611a9d565b90508073ffffffffffffffffffffffffffffffffffffffff168473ffffffffffffffffffffffffffffffffffffffff161480612b3557508373ffffffffffffffffffffffffffffffffffffffff16612b1d84610d5a565b73ffffffffffffffffffffffffffffffffffffffff16145b80612b465750612b4581856125ff565b5b91505092915050565b8273ffffffffffffffffffffffffffffffffffffffff16612b6f82611a9d565b73ffffffffffffffffffffffffffffffffffffffff1614612bc5576040517f08c379a0000000000000000000000000000000000000000000000000000000008152600401612bbc90614770565b60405180910390fd5b600073ffffffffffffffffffffffffffffffffffffffff168273ffffffffffffffffffffffffffffffffffffffff161415612c35576040517f08c379a0000000000000000000000000000000000000000000000000000000008152600401612c2c906147f0565b60405180910390fd5b612c408383836132c0565b612c4b6000826129b8565b6001600360008573ffffffffffffffffffffffffffffffffffffffff1673ffffffffffffffffffffffffffffffffffffffff1681526020019081526020016000206000828254612c9b9190614c6f565b925050819055506001600360008473ffffffffffffffffffffffffffffffffffffffff1673ffffffffffffffffffffffffffffffffffffffff1681526020019081526020016000206000828254612cf29190614b8e565b92505081905550816002600083815260200190815260200160002060006101000a81548173ffffffffffffffffffffffffffffffffffffffff021916908373ffffffffffffffffffffffffffffffffffffffff160217905550808273ffffffffffffffffffffffffffffffffffffffff168473ffffffffffffffffffffffffffffffffffffffff167fddf252ad1be2c89b69c2b068fc378daa952ba7f163c4a11628f55a4df523b3ef60405160405180910390a4612db18383836133d4565b505050565b612dd08282604051806020016040528060008152506133d9565b5050565b6000600a60009054906101000a900473ffffffffffffffffffffffffffffffffffffffff16905081600a60006101000a81548173ffffffffffffffffffffffffffffffffffffffff021916908373ffffffffffffffffffffffffffffffffffffffff1602179055508173ffffffffffffffffffffffffffffffffffffffff168173ffffffffffffffffffffffffffffffffffffffff167f8be0079c531659141344cd1fd0a4f28419497f9722a3daafe3b4186f6b6457e060405160405180910390a35050565b8173ffffffffffffffffffffffffffffffffffffffff168373ffffffffffffffffffffffffffffffffffffffff161415612f09576040517f08c379a0000000000000000000000000000000000000000000000000000000008152600401612f0090614810565b60405180910390fd5b80600560008573ffffffffffffffffffffffffffffffffffffffff1673ffffffffffffffffffffffffffffffffffffffff16815260200190815260200160002060008473ffffffffffffffffffffffffffffffffffffffff1673ffffffffffffffffffffffffffffffffffffffff16815260200190815260200160002060006101000a81548160ff0219169083151502179055508173ffffffffffffffffffffffffffffffffffffffff168373ffffffffffffffffffffffffffffffffffffffff167f17307eab39ab6107e8899845ad3d59bd9653f200f220920489ca2b5937696c3183604051612ffa919061466a565b60405180910390a3505050565b613012848484612b4f565b61301e84848484613434565b61305d576040517f08c379a000000000000000000000000000000000000000000000000000000000815260040161305490614710565b60405180910390fd5b50505050565b6060600c805461307290614d6b565b80601f016020809104026020016040519081016040528092919081815260200182805461309e90614d6b565b80156130eb5780601f106130c0576101008083540402835291602001916130eb565b820191906000526020600020905b8154815290600101906020018083116130ce57829003601f168201915b5050505050905090565b6060600082141561313d576040518060400160405280600181526020017f30000000000000000000000000000000000000000000000000000000000000008152509050613251565b600082905060005b6000821461316f57808061315890614dce565b915050600a826131689190614be4565b9150613145565b60008167ffffffffffffffff81111561318b5761318a614f33565b5b6040519080825280601f01601f1916602001820160405280156131bd5781602001600182028036833780820191505090505b5090505b6000851461324a576001826131d69190614c6f565b9150600a856131e59190614e17565b60306131f19190614b8e565b60f81b81838151811061320757613206614f04565b5b60200101907effffffffffffffffffffffffffffffffffffffffffffffffffffffffffffff1916908160001a905350600a856132439190614be4565b94506131c1565b8093505050505b919050565b60007f01ffc9a7000000000000000000000000000000000000000000000000000000007bffffffffffffffffffffffffffffffffffffffffffffffffffffffff1916827bffffffffffffffffffffffffffffffffffffffffffffffffffffffff1916149050919050565b6132cb8383836135cb565b600073ffffffffffffffffffffffffffffffffffffffff168373ffffffffffffffffffffffffffffffffffffffff16141561330e57613309816135d0565b61334d565b8173ffffffffffffffffffffffffffffffffffffffff168373ffffffffffffffffffffffffffffffffffffffff161461334c5761334b8382613619565b5b5b600073ffffffffffffffffffffffffffffffffffffffff168273ffffffffffffffffffffffffffffffffffffffff1614156133905761338b81613786565b6133cf565b8273ffffffffffffffffffffffffffffffffffffffff168273ffffffffffffffffffffffffffffffffffffffff16146133ce576133cd8282613857565b5b5b505050565b505050565b6133e383836138d6565b6133f06000848484613434565b61342f576040517f08c379a000000000000000000000000000000000000000000000000000000000815260040161342690614710565b60405180910390fd5b505050565b60006134558473ffffffffffffffffffffffffffffffffffffffff16613ab0565b156135be578373ffffffffffffffffffffffffffffffffffffffff1663150b7a0261347e612944565b8786866040518563ffffffff1660e01b81526004016134a094939291906145fc565b602060405180830381600087803b1580156134ba57600080fd5b505af19250505080156134eb57506040513d601f19601f820116820180604052508101906134e89190613f1e565b60015b61356e573d806000811461351b576040519150601f19603f3d011682016040523d82523d6000602084013e613520565b606091505b50600081511415613566576040517f08c379a000000000000000000000000000000000000000000000000000000000815260040161355d90614710565b60405180910390fd5b805181602001fd5b63150b7a0260e01b7bffffffffffffffffffffffffffffffffffffffffffffffffffffffff1916817bffffffffffffffffffffffffffffffffffffffffffffffffffffffff1916149150506135c3565b600190505b949350505050565b505050565b6008805490506009600083815260200190815260200160002081905550600881908060018154018082558091505060019003906000526020600020016000909190919091505550565b6000600161362684611c34565b6136309190614c6f565b9050600060076000848152602001908152602001600020549050818114613715576000600660008673ffffffffffffffffffffffffffffffffffffffff1673ffffffffffffffffffffffffffffffffffffffff168152602001908152602001600020600084815260200190815260200160002054905080600660008773ffffffffffffffffffffffffffffffffffffffff1673ffffffffffffffffffffffffffffffffffffffff168152602001908152602001600020600084815260200190815260200160002081905550816007600083815260200190815260200160002081905550505b6007600084815260200190815260200160002060009055600660008573ffffffffffffffffffffffffffffffffffffffff1673ffffffffffffffffffffffffffffffffffffffff16815260200190815260200160002060008381526020019081526020016000206000905550505050565b6000600160088054905061379a9190614c6f565b90506000600960008481526020019081526020016000205490506000600883815481106137ca576137c9614f04565b5b9060005260206000200154905080600883815481106137ec576137eb614f04565b5b90600052602060002001819055508160096000838152602001908152602001600020819055506009600085815260200190815260200160002060009055600880548061383b5761383a614ed5565b5b6001900381819060005260206000200160009055905550505050565b600061386283611c34565b905081600660008573ffffffffffffffffffffffffffffffffffffffff1673ffffffffffffffffffffffffffffffffffffffff168152602001908152602001600020600083815260200190815260200160002081905550806007600084815260200190815260200160002081905550505050565b600073ffffffffffffffffffffffffffffffffffffffff168273ffffffffffffffffffffffffffffffffffffffff161415613946576040517f08c379a000000000000000000000000000000000000000000000000000000000815260040161393d906148b0565b60405180910390fd5b61394f8161294c565b1561398f576040517f08c379a000000000000000000000000000000000000000000000000000000000815260040161398690614790565b60405180910390fd5b61399b600083836132c0565b6001600360008473ffffffffffffffffffffffffffffffffffffffff1673ffffffffffffffffffffffffffffffffffffffff16815260200190815260200160002060008282546139eb9190614b8e565b92505081905550816002600083815260200190815260200160002060006101000a81548173ffffffffffffffffffffffffffffffffffffffff021916908373ffffffffffffffffffffffffffffffffffffffff160217905550808273ffffffffffffffffffffffffffffffffffffffff16600073ffffffffffffffffffffffffffffffffffffffff167fddf252ad1be2c89b69c2b068fc378daa952ba7f163c4a11628f55a4df523b3ef60405160405180910390a4613aac600083836133d4565b5050565b6000808273ffffffffffffffffffffffffffffffffffffffff163b119050919050565b828054613adf90614d6b565b90600052602060002090601f016020900481019282613b015760008555613b48565b82601f10613b1a57805160ff1916838001178555613b48565b82800160010185558215613b48579182015b82811115613b47578251825591602001919060010190613b2c565b5b509050613b559190613b59565b5090565b5b80821115613b72576000816000905550600101613b5a565b5090565b6000613b89613b8484614a90565b614a6b565b905082815260208101848484011115613ba557613ba4614f67565b5b613bb0848285614d29565b509392505050565b6000613bcb613bc684614ac1565b614a6b565b905082815260208101848484011115613be757613be6614f67565b5b613bf2848285614d29565b509392505050565b600081359050613c0981615640565b92915050565b600081359050613c1e81615657565b92915050565b600081359050613c338161566e565b92915050565b600081359050613c4881615685565b92915050565b600081519050613c5d81615685565b92915050565b600082601f830112613c7857613c77614f62565b5b8135613c88848260208601613b76565b91505092915050565b600082601f830112613ca657613ca5614f62565b5b8135613cb6848260208601613bb8565b91505092915050565b600081359050613cce8161569c565b92915050565b600060208284031215613cea57613ce9614f71565b5b6000613cf884828501613bfa565b91505092915050565b600060208284031215613d1757613d16614f71565b5b6000613d2584828501613c0f565b91505092915050565b60008060408385031215613d4557613d44614f71565b5b6000613d5385828601613bfa565b9250506020613d6485828601613bfa565b9150509250929050565b600080600060608486031215613d8757613d86614f71565b5b6000613d9586828701613bfa565b9350506020613da686828701613bfa565b9250506040613db786828701613cbf565b9150509250925092565b60008060008060808587031215613ddb57613dda614f71565b5b6000613de987828801613bfa565b9450506020613dfa87828801613bfa565b9350506040613e0b87828801613cbf565b925050606085013567ffffffffffffffff811115613e2c57613e2b614f6c565b5b613e3887828801613c63565b91505092959194509250565b60008060408385031215613e5b57613e5a614f71565b5b6000613e6985828601613bfa565b9250506020613e7a85828601613c24565b9150509250929050565b60008060408385031215613e9b57613e9a614f71565b5b6000613ea985828601613bfa565b9250506020613eba85828601613cbf565b9150509250929050565b600060208284031215613eda57613ed9614f71565b5b6000613ee884828501613c24565b91505092915050565b600060208284031215613f0757613f06614f71565b5b6000613f1584828501613c39565b91505092915050565b600060208284031215613f3457613f33614f71565b5b6000613f4284828501613c4e565b91505092915050565b600060208284031215613f6157613f60614f71565b5b600082013567ffffffffffffffff811115613f7f57613f7e614f6c565b5b613f8b84828501613c91565b91505092915050565b600060208284031215613faa57613fa9614f71565b5b6000613fb884828501613cbf565b91505092915050565b6000613fcd838361457d565b60208301905092915050565b613fe281614cb5565b82525050565b613ff181614ca3565b82525050565b600061400282614b17565b61400c8185614b45565b935061401783614af2565b8060005b8381101561404857815161402f8882613fc1565b975061403a83614b38565b92505060018101905061401b565b5085935050505092915050565b61405e81614cc7565b82525050565b600061406f82614b22565b6140798185614b56565b9350614089818560208601614d38565b61409281614f76565b840191505092915050565b60006140a882614b2d565b6140b28185614b72565b93506140c2818560208601614d38565b6140cb81614f76565b840191505092915050565b60006140e182614b2d565b6140eb8185614b83565b93506140fb818560208601614d38565b80840191505092915050565b6000815461411481614d6b565b61411e8186614b83565b94506001821660008114614139576001811461414a5761417d565b60ff1983168652818601935061417d565b61415385614b02565b60005b8381101561417557815481890152600182019150602081019050614156565b838801955050505b50505092915050565b6000614193601283614b72565b915061419e82614f87565b602082019050919050565b60006141b6602b83614b72565b91506141c182614fb0565b604082019050919050565b60006141d9603283614b72565b91506141e482614fff565b604082019050919050565b60006141fc602683614b72565b91506142078261504e565b604082019050919050565b600061421f602183614b72565b915061422a8261509d565b604082019050919050565b6000614242602583614b72565b915061424d826150ec565b604082019050919050565b6000614265601c83614b72565b91506142708261513b565b602082019050919050565b6000614288601e83614b72565b915061429382615164565b602082019050919050565b60006142ab601783614b72565b91506142b68261518d565b602082019050919050565b60006142ce602483614b72565b91506142d9826151b6565b604082019050919050565b60006142f1601983614b72565b91506142fc82615205565b602082019050919050565b6000614314602c83614b72565b915061431f8261522e565b604082019050919050565b6000614337603883614b72565b91506143428261527d565b604082019050919050565b600061435a602a83614b72565b9150614365826152cc565b604082019050919050565b600061437d602983614b72565b91506143888261531b565b604082019050919050565b60006143a0602083614b72565b91506143ab8261536a565b602082019050919050565b60006143c3602c83614b72565b91506143ce82615393565b604082019050919050565b60006143e6602083614b72565b91506143f1826153e2565b602082019050919050565b6000614409602f83614b72565b91506144148261540b565b604082019050919050565b600061442c602183614b72565b91506144378261545a565b604082019050919050565b600061444f601a83614b72565b915061445a826154a9565b602082019050919050565b6000614472601e83614b72565b915061447d826154d2565b602082019050919050565b6000614495601683614b72565b91506144a0826154fb565b602082019050919050565b60006144b8600083614b67565b91506144c382615524565b600082019050919050565b60006144db603183614b72565b91506144e682615527565b604082019050919050565b60006144fe601e83614b72565b915061450982615576565b602082019050919050565b6000614521602c83614b72565b915061452c8261559f565b604082019050919050565b6000614544601083614b72565b915061454f826155ee565b602082019050919050565b6000614567601483614b72565b915061457282615617565b602082019050919050565b61458681614d1f565b82525050565b61459581614d1f565b82525050565b60006145a782866140d6565b91506145b382856140d6565b91506145bf8284614107565b9150819050949350505050565b60006145d7826144ab565b9150819050919050565b60006020820190506145f66000830184613fe8565b92915050565b60006080820190506146116000830187613fe8565b61461e6020830186613fe8565b61462b604083018561458c565b818103606083015261463d8184614064565b905095945050505050565b600060208201905081810360008301526146628184613ff7565b905092915050565b600060208201905061467f6000830184614055565b92915050565b600060408201905061469a6000830185614055565b6146a76020830184613fd9565b9392505050565b600060208201905081810360008301526146c8818461409d565b905092915050565b600060208201905081810360008301526146e981614186565b9050919050565b60006020820190508181036000830152614709816141a9565b9050919050565b60006020820190508181036000830152614729816141cc565b9050919050565b60006020820190508181036000830152614749816141ef565b9050919050565b6000602082019050818103600083015261476981614212565b9050919050565b6000602082019050818103600083015261478981614235565b9050919050565b600060208201905081810360008301526147a981614258565b9050919050565b600060208201905081810360008301526147c98161427b565b9050919050565b600060208201905081810360008301526147e98161429e565b9050919050565b60006020820190508181036000830152614809816142c1565b9050919050565b60006020820190508181036000830152614829816142e4565b9050919050565b6000602082019050818103600083015261484981614307565b9050919050565b600060208201905081810360008301526148698161432a565b9050919050565b600060208201905081810360008301526148898161434d565b9050919050565b600060208201905081810360008301526148a981614370565b9050919050565b600060208201905081810360008301526148c981614393565b9050919050565b600060208201905081810360008301526148e9816143b6565b9050919050565b60006020820190508181036000830152614909816143d9565b9050919050565b60006020820190508181036000830152614929816143fc565b9050919050565b600060208201905081810360008301526149498161441f565b9050919050565b6000602082019050818103600083015261496981614442565b9050919050565b6000602082019050818103600083015261498981614465565b9050919050565b600060208201905081810360008301526149a981614488565b9050919050565b600060208201905081810360008301526149c9816144ce565b9050919050565b600060208201905081810360008301526149e9816144f1565b9050919050565b60006020820190508181036000830152614a0981614514565b9050919050565b60006020820190508181036000830152614a2981614537565b9050919050565b60006020820190508181036000830152614a498161455a565b9050919050565b6000602082019050614a65600083018461458c565b92915050565b6000614a75614a86565b9050614a818282614d9d565b919050565b6000604051905090565b600067ffffffffffffffff821115614aab57614aaa614f33565b5b614ab482614f76565b9050602081019050919050565b600067ffffffffffffffff821115614adc57614adb614f33565b5b614ae582614f76565b9050602081019050919050565b6000819050602082019050919050565b60008190508160005260206000209050919050565b600081519050919050565b600081519050919050565b600081519050919050565b6000602082019050919050565b600082825260208201905092915050565b600082825260208201905092915050565b600081905092915050565b600082825260208201905092915050565b600081905092915050565b6000614b9982614d1f565b9150614ba483614d1f565b9250827fffffffffffffffffffffffffffffffffffffffffffffffffffffffffffffffff03821115614bd957614bd8614e48565b5b828201905092915050565b6000614bef82614d1f565b9150614bfa83614d1f565b925082614c0a57614c09614e77565b5b828204905092915050565b6000614c2082614d1f565b9150614c2b83614d1f565b9250817fffffffffffffffffffffffffffffffffffffffffffffffffffffffffffffffff0483118215151615614c6457614c63614e48565b5b828202905092915050565b6000614c7a82614d1f565b9150614c8583614d1f565b925082821015614c9857614c97614e48565b5b828203905092915050565b6000614cae82614cff565b9050919050565b6000614cc082614cff565b9050919050565b60008115159050919050565b60007fffffffff0000000000000000000000000000000000000000000000000000000082169050919050565b600073ffffffffffffffffffffffffffffffffffffffff82169050919050565b6000819050919050565b82818337600083830152505050565b60005b83811015614d56578082015181840152602081019050614d3b565b83811115614d65576000848401525b50505050565b60006002820490506001821680614d8357607f821691505b60208210811415614d9757614d96614ea6565b5b50919050565b614da682614f76565b810181811067ffffffffffffffff82111715614dc557614dc4614f33565b5b80604052505050565b6000614dd982614d1f565b91507fffffffffffffffffffffffffffffffffffffffffffffffffffffffffffffffff821415614e0c57614e0b614e48565b5b600182019050919050565b6000614e2282614d1f565b9150614e2d83614d1f565b925082614e3d57614e3c614e77565b5b828206905092915050565b7f4e487b7100000000000000000000000000000000000000000000000000000000600052601160045260246000fd5b7f4e487b7100000000000000000000000000000000000000000000000000000000600052601260045260246000fd5b7f4e487b7100000000000000000000000000000000000000000000000000000000600052602260045260246000fd5b7f4e487b7100000000000000000000000000000000000000000000000000000000600052603160045260246000fd5b7f4e487b7100000000000000000000000000000000000000000000000000000000600052603260045260246000fd5b7f4e487b7100000000000000000000000000000000000000000000000000000000600052604160045260246000fd5b600080fd5b600080fd5b600080fd5b600080fd5b6000601f19601f8301169050919050565b7f4d696e74696e67206973207061757365642e0000000000000000000000000000600082015250565b7f455243373231456e756d657261626c653a206f776e657220696e646578206f7560008201527f74206f6620626f756e6473000000000000000000000000000000000000000000602082015250565b7f4552433732313a207472616e7366657220746f206e6f6e20455243373231526560008201527f63656976657220696d706c656d656e7465720000000000000000000000000000602082015250565b7f4f776e61626c653a206e6577206f776e657220697320746865207a65726f206160008201527f6464726573730000000000000000000000000000000000000000000000000000602082015250565b7f45544820616d6f756e74206c6f776572207468616e207075626c69632d73616c60008201527f6500000000000000000000000000000000000000000000000000000000000000602082015250565b7f4552433732313a207472616e736665722066726f6d20696e636f72726563742060008201527f6f776e6572000000000000000000000000000000000000000000000000000000602082015250565b7f4552433732313a20746f6b656e20616c7265616479206d696e74656400000000600082015250565b7f55736572206e6f742077686974656c697374656420666f72206d696e742e0000600082015250565b7f4d696e74696e67206c696d69742065786365656465642e000000000000000000600082015250565b7f4552433732313a207472616e7366657220746f20746865207a65726f2061646460008201527f7265737300000000000000000000000000000000000000000000000000000000602082015250565b7f4552433732313a20617070726f766520746f2063616c6c657200000000000000600082015250565b7f4552433732313a206f70657261746f7220717565727920666f72206e6f6e657860008201527f697374656e7420746f6b656e0000000000000000000000000000000000000000602082015250565b7f4552433732313a20617070726f76652063616c6c6572206973206e6f74206f7760008201527f6e6572206e6f7220617070726f76656420666f7220616c6c0000000000000000602082015250565b7f4552433732313a2062616c616e636520717565727920666f7220746865207a6560008201527f726f206164647265737300000000000000000000000000000000000000000000602082015250565b7f4552433732313a206f776e657220717565727920666f72206e6f6e657869737460008201527f656e7420746f6b656e0000000000000000000000000000000000000000000000602082015250565b7f4552433732313a206d696e7420746f20746865207a65726f2061646472657373600082015250565b7f4552433732313a20617070726f76656420717565727920666f72206e6f6e657860008201527f697374656e7420746f6b656e0000000000000000000000000000000000000000602082015250565b7f4f776e61626c653a2063616c6c6572206973206e6f7420746865206f776e6572600082015250565b7f4552433732314d657461646174613a2055524920717565727920666f72206e6f60008201527f6e6578697374656e7420746f6b656e0000000000000000000000000000000000602082015250565b7f4552433732313a20617070726f76616c20746f2063757272656e74206f776e6560008201527f7200000000000000000000000000000000000000000000000000000000000000602082015250565b7f596f752063616e6e6f7420726566657220796f757273656c662e000000000000600082015250565b7f45544820616d6f756e74206c6f776572207468616e207072652d73616c650000600082015250565b7f5573657220616c72656164792072656665727265642e00000000000000000000600082015250565b50565b7f4552433732313a207472616e736665722063616c6c6572206973206e6f74206f60008201527f776e6572206e6f7220617070726f766564000000000000000000000000000000602082015250565b7f57616c6c6574206d696e74696e67206c696d69742065786365656465642e0000600082015250565b7f455243373231456e756d657261626c653a20676c6f62616c20696e646578206f60008201527f7574206f6620626f756e64730000000000000000000000000000000000000000602082015250565b7f4174206c65617374206d696e7420312e00000000000000000000000000000000600082015250565b7f4d617820737570706c792065786365656465642e000000000000000000000000600082015250565b61564981614ca3565b811461565457600080fd5b50565b61566081614cb5565b811461566b57600080fd5b50565b61567781614cc7565b811461568257600080fd5b50565b61568e81614cd3565b811461569957600080fd5b50565b6156a581614d1f565b81146156b057600080fd5b5056fea26469706673582212204a9f17d347342ec4259fe3f7abab65a0dd973f97d6171feaa88c5be46efe462d64736f6c63430008070033",
  "immutableReferences": {},
  "source": "// SPDX-License-Identifier: GPL-3.0\r\n\r\npragma solidity ^0.8.0;\r\n\r\nimport \"@openzeppelin/contracts/token/ERC721/extensions/ERC721Enumerable.sol\";\r\nimport \"@openzeppelin/contracts/access/Ownable.sol\";\r\n\r\ncontract ScaryTeacherNFT is ERC721Enumerable, Ownable {\r\n    using Strings for uint256;\r\n\r\n    struct Referee {\r\n        bool isReferred;\r\n        address payable referrer;\r\n    }\r\n\r\n    string public collectionName = \"ScaryTeacher\"; // NTF collection name\r\n    string public baseURI; // NTFs' Base URL\r\n    string public baseExtension = \".json\";  // Metadata extension\r\n    uint256 public preSaleCost = 0.01 ether;\r\n    uint256 public publicMintCost = 0.05 ether;\r\n    uint256 public maxSupply = 10000;\r\n    uint256 public maxMintAmount = 20;\r\n    uint256 public maxNFTsPerWallet = 20;\r\n    uint256 public referralBonusPercentage = 10;\r\n    bool public paused = false;\r\n    bool public isPreSale = true; // allow only whitelisted guys to mint\r\n    //    address[] public mintingWhitelist; // these guys are allowed to mint in presale\r\n    mapping(address => bool) public mintingWhitelist; // these guys are allowed to mint in presale\r\n    mapping(address => bool) public notPayingWhitelist; // these guys won't pay while minting\r\n    mapping(address => Referee) public referees; // people who have been referred\r\n\r\n    constructor(\r\n        string memory _name,\r\n        string memory _symbol,\r\n        string memory _initBaseURI\r\n    ) ERC721(_name, _symbol) {\r\n        setBaseURI(_initBaseURI);\r\n        //         mint(msg.sender, 20);\r\n    }\r\n\r\n    // internal\r\n    function _baseURI() internal view virtual override returns (string memory) {\r\n        return baseURI;\r\n    }\r\n\r\n    // public\r\n    function mint(address _to, uint256 _mintAmount) public payable {\r\n        uint256 supply = totalSupply();\r\n        require(!paused, \"Minting is paused.\");\r\n        require(_mintAmount > 0, \"At least mint 1.\");\r\n        require(_mintAmount <= maxMintAmount, \"Minting limit exceeded.\");\r\n        require(supply + _mintAmount <= maxSupply, \"Max supply exceeded.\");\r\n        //        require(msg.sender != owner(), \"Collection owner cannot mint.\");\r\n        uint256 ownerTokenCount = balanceOf(_to);\r\n        require(ownerTokenCount < maxNFTsPerWallet, \"Wallet minting limit exceeded.\");\r\n\r\n        //        if (msg.sender != owner()) {// check if the caller is not the collection owner\r\n        if (isPreSale == true) {// check if pres-sale is active\r\n            require(isWhitelistedForMinting(_to), \"User not whitelisted for mint.\");\r\n\r\n        }\r\n        if (notPayingWhitelist[_to] == false) {// check if the guy should pay\r\n\r\n            // pay\r\n            if (isPreSale == true) {\r\n                require(msg.value >= preSaleCost * _mintAmount, \"ETH amount lower than pre-sale\");\r\n            } else {\r\n                require(msg.value >= publicMintCost * _mintAmount, \"ETH amount lower than public-sale\");\r\n            }\r\n\r\n            if (referees[_to].isReferred) {\r\n                address payable referrer = referees[msg.sender].referrer;\r\n                uint256 cut = (msg.value * referralBonusPercentage) / 100;\r\n                uint256 transferAmt = msg.value - cut;\r\n\r\n                referrer.transfer(cut);\r\n\r\n            }\r\n        }\r\n        //        }\r\n\r\n        for (uint256 i = 1; i <= _mintAmount; i++) {\r\n            _safeMint(_to, supply + i);\r\n        }\r\n    }\r\n\r\n    function isWhitelistedForMinting(address _user) public view returns (bool) {\r\n        //        for (uint256 i = 0; i < mintingWhitelist.length; i++) {\r\n        //            if (mintingWhitelist[i] == _user) {\r\n        //                return true;\r\n        //            }\r\n        //        }\r\n        //        return false;\r\n        return mintingWhitelist[_user];\r\n    }\r\n\r\n    function addReferral(address payable referrer) public {\r\n        require(referees[msg.sender].isReferred == false, \"User already referred.\");\r\n        require(referrer != msg.sender, \"You cannot refer yourself.\");\r\n\r\n        referees[msg.sender].referrer = referrer;\r\n        referees[msg.sender].isReferred = true;\r\n    }\r\n\r\n    function walletOfOwner(address _owner)\r\n    public\r\n    view\r\n    returns (uint256[] memory)\r\n    {\r\n        uint256 ownerTokenCount = balanceOf(_owner);\r\n        uint256[] memory tokenIds = new uint256[](ownerTokenCount);\r\n        for (uint256 i; i < ownerTokenCount; i++) {\r\n            tokenIds[i] = tokenOfOwnerByIndex(_owner, i);\r\n        }\r\n        return tokenIds;\r\n    }\r\n\r\n    function tokenURI(uint256 tokenId)\r\n    public\r\n    view\r\n    virtual\r\n    override\r\n    returns (string memory)\r\n    {\r\n        require(\r\n            _exists(tokenId),\r\n            \"ERC721Metadata: URI query for nonexistent token\"\r\n        );\r\n\r\n        string memory currentBaseURI = _baseURI();\r\n        return bytes(currentBaseURI).length > 0\r\n        ? string(abi.encodePacked(currentBaseURI, tokenId.toString(), baseExtension))\r\n        : \"\";\r\n    }\r\n\r\n    //only owner\r\n\r\n    function whitelistUser(address _user) public onlyOwner {\r\n        mintingWhitelist[_user] = true;\r\n    }\r\n\r\n    function blacklistUser(address _user) public onlyOwner {\r\n        mintingWhitelist[_user] = false;\r\n    }\r\n\r\n    function setPreSaleCost(uint256 _newCost) public onlyOwner {\r\n        preSaleCost = _newCost;\r\n    }\r\n\r\n    function setPublicMintCost(uint256 _newCost) public onlyOwner {\r\n        publicMintCost = _newCost;\r\n    }\r\n\r\n    function setMaxNFTsPerWallet(uint256 _limit) public onlyOwner {\r\n        maxNFTsPerWallet = _limit;\r\n    }\r\n\r\n    function setMaxMintAmount(uint256 _newMaxMintAmount) public onlyOwner {\r\n        maxMintAmount = _newMaxMintAmount;\r\n    }\r\n\r\n    function setReferralBonusPercentage(uint256 _newReferralBonusPercentage) public onlyOwner {\r\n        referralBonusPercentage = _newReferralBonusPercentage;\r\n    }\r\n\r\n    function setBaseURI(string memory _newBaseURI) public onlyOwner {\r\n        baseURI = _newBaseURI;\r\n    }\r\n\r\n    function setBaseExtension(string memory _newBaseExtension) public onlyOwner {\r\n        baseExtension = _newBaseExtension;\r\n    }\r\n\r\n    function pause(bool _state) public onlyOwner {\r\n        paused = _state;\r\n    }\r\n\r\n    function setPreSale(bool _state) public onlyOwner {\r\n        isPreSale = _state;\r\n    }\r\n\r\n    function allowFreeMint(address _user, bool _state) public onlyOwner {\r\n        notPayingWhitelist[_user] = _state;\r\n    }\r\n\r\n    // function whitelistUser(address _user) public onlyOwner {\r\n    //   whitelisted[_user] = true;\r\n    // }\r\n\r\n    // function removeWhitelistUser(address _user) public onlyOwner {\r\n    //   whitelisted[_user] = false;\r\n    // }\r\n\r\n    function withdraw() public payable onlyOwner {\r\n        // This will pay 5% of the initial sale.\r\n        // =============================================================================\r\n        //require(payable(msg.sender).send(address(this).balance));\r\n\r\n        (bool hs,) = payable(0x83Cfa478853C741FE8FC27a34223Be105D834464).call{value : address(this).balance * 5 / 100}(\"\");\r\n        require(hs);\r\n\r\n        // =============================================================================\r\n\r\n        // This will payout the owner 95% of the contract balance.\r\n        // Do not remove this otherwise you will not be able to withdraw the funds.\r\n        // =============================================================================\r\n\r\n        (bool os,) = payable(owner()).call{value : address(this).balance}(\"\");\r\n        require(os);\r\n\r\n        // =============================================================================\r\n    }\r\n}",
  "sourcePath": "C:\\Users\\Fahad.Farooq\\Desktop\\ZNK\\SmartContracts-V2\\contracts\\ScaryTeacherNFT.sol",
  "compiler": {
    "name": "solc",
    "version": "0.8.7+commit.e28d00a7.Emscripten.clang"
  },
  "schemaVersion": "3.4.5",
  "updatedAt": "2022-03-18T06:50:28.963Z",
  "networkType": "ethereum",
  "devdoc": {
    "kind": "dev",
    "methods": {
      "approve(address,uint256)": {
        "details": "See {IERC721-approve}."
      },
      "balanceOf(address)": {
        "details": "See {IERC721-balanceOf}."
      },
      "getApproved(uint256)": {
        "details": "See {IERC721-getApproved}."
      },
      "isApprovedForAll(address,address)": {
        "details": "See {IERC721-isApprovedForAll}."
      },
      "name()": {
        "details": "See {IERC721Metadata-name}."
      },
      "owner()": {
        "details": "Returns the address of the current owner."
      },
      "ownerOf(uint256)": {
        "details": "See {IERC721-ownerOf}."
      },
      "renounceOwnership()": {
        "details": "Leaves the contract without owner. It will not be possible to call `onlyOwner` functions anymore. Can only be called by the current owner. NOTE: Renouncing ownership will leave the contract without an owner, thereby removing any functionality that is only available to the owner."
      },
      "safeTransferFrom(address,address,uint256)": {
        "details": "See {IERC721-safeTransferFrom}."
      },
      "safeTransferFrom(address,address,uint256,bytes)": {
        "details": "See {IERC721-safeTransferFrom}."
      },
      "setApprovalForAll(address,bool)": {
        "details": "See {IERC721-setApprovalForAll}."
      },
      "supportsInterface(bytes4)": {
        "details": "See {IERC165-supportsInterface}."
      },
      "symbol()": {
        "details": "See {IERC721Metadata-symbol}."
      },
      "tokenByIndex(uint256)": {
        "details": "See {IERC721Enumerable-tokenByIndex}."
      },
      "tokenOfOwnerByIndex(address,uint256)": {
        "details": "See {IERC721Enumerable-tokenOfOwnerByIndex}."
      },
      "tokenURI(uint256)": {
        "details": "See {IERC721Metadata-tokenURI}."
      },
      "totalSupply()": {
        "details": "See {IERC721Enumerable-totalSupply}."
      },
      "transferFrom(address,address,uint256)": {
        "details": "See {IERC721-transferFrom}."
      },
      "transferOwnership(address)": {
        "details": "Transfers ownership of the contract to a new account (`newOwner`). Can only be called by the current owner."
      }
    },
    "version": 1
  },
  "userdoc": {
    "kind": "user",
    "methods": {},
    "version": 1
  }
}